{
  "contractName": "Mortal",
  "abi": [
    {
      "constant": false,
      "inputs": [],
      "name": "circuitBreaker",
      "outputs": [],
      "payable": false,
      "stateMutability": "nonpayable",
      "type": "function",
      "signature": "0x16efd941"
    },
    {
      "constant": true,
      "inputs": [],
      "name": "skuCount",
      "outputs": [
        {
          "name": "",
          "type": "uint256"
        }
      ],
      "payable": false,
      "stateMutability": "view",
      "type": "function",
      "signature": "0x22702473"
    },
    {
      "constant": true,
      "inputs": [],
      "name": "contractPaused",
      "outputs": [
        {
          "name": "",
          "type": "bool"
        }
      ],
      "payable": false,
      "stateMutability": "view",
      "type": "function",
      "signature": "0x8a67456a"
    },
    {
      "constant": false,
      "inputs": [
        {
          "name": "_name",
          "type": "string"
        },
        {
          "name": "_price",
          "type": "uint256"
        },
        {
          "name": "_image",
          "type": "string"
        }
      ],
      "name": "addItem",
      "outputs": [],
      "payable": false,
      "stateMutability": "nonpayable",
      "type": "function",
      "signature": "0xa3e54b3e"
    },
    {
      "constant": true,
      "inputs": [
        {
          "name": "_sku",
          "type": "uint256"
        }
      ],
      "name": "fetchItem",
      "outputs": [
        {
          "name": "name",
          "type": "string"
        },
        {
          "name": "sku",
          "type": "uint256"
        },
        {
          "name": "price",
          "type": "uint256"
        },
        {
          "name": "state",
          "type": "uint256"
        },
        {
          "name": "seller",
          "type": "address"
        },
        {
          "name": "buyer",
          "type": "address"
        },
        {
          "name": "image",
          "type": "string"
        }
      ],
      "payable": false,
      "stateMutability": "view",
      "type": "function",
      "signature": "0xad4b9cfb"
    },
    {
      "constant": true,
      "inputs": [
        {
          "name": "",
          "type": "uint256"
        }
      ],
      "name": "items",
      "outputs": [
        {
          "name": "name",
          "type": "string"
        },
        {
          "name": "sku",
          "type": "uint256"
        },
        {
          "name": "price",
          "type": "uint256"
        },
        {
          "name": "image",
          "type": "string"
        },
        {
          "name": "state",
          "type": "uint8"
        },
        {
          "name": "seller",
          "type": "address"
        },
        {
          "name": "buyer",
          "type": "address"
        }
      ],
      "payable": false,
      "stateMutability": "view",
      "type": "function",
      "signature": "0xbfb231d2"
    },
    {
      "constant": false,
      "inputs": [
        {
          "name": "sku",
          "type": "uint256"
        }
      ],
      "name": "buyItem",
      "outputs": [],
      "payable": true,
      "stateMutability": "payable",
      "type": "function",
      "signature": "0xe7fb74c7"
    },
    {
      "anonymous": false,
      "inputs": [
        {
          "indexed": true,
          "name": "sku",
          "type": "uint256"
        }
      ],
      "name": "ForSale",
      "type": "event",
      "signature": "0xa96ae0fc3224ebd79eebfe54bd130cc9cb94416cddd1f2386115e00b72532468"
    },
    {
      "anonymous": false,
      "inputs": [
        {
          "indexed": true,
          "name": "sku",
          "type": "uint256"
        }
      ],
      "name": "Sold",
      "type": "event",
      "signature": "0x92f64ca637d023f354075a4be751b169c1a8a9ccb6d33cdd0cb3520543995727"
    },
    {
      "constant": false,
      "inputs": [],
      "name": "destroy",
      "outputs": [],
      "payable": false,
      "stateMutability": "nonpayable",
      "type": "function",
      "signature": "0x83197ef0"
    },
    {
      "constant": false,
      "inputs": [
        {
          "name": "recipient",
          "type": "address"
        }
      ],
      "name": "destroyAndSend",
      "outputs": [],
      "payable": false,
      "stateMutability": "nonpayable",
      "type": "function",
      "signature": "0xf5074f41"
    }
  ],
  "bytecode": "0x608060405260008060146101000a81548160ff021916908315150217905550336000806101000a81548173ffffffffffffffffffffffffffffffffffffffff021916908373ffffffffffffffffffffffffffffffffffffffff160217905550600060018190555061124a806100756000396000f3fe608060405260043610610099576000357c0100000000000000000000000000000000000000000000000000000000900463ffffffff16806316efd9411461009e57806322702473146100b557806383197ef0146100e05780638a67456a146100f7578063a3e54b3e14610126578063ad4b9cfb1461028f578063bfb231d21461042a578063e7fb74c7146105d3578063f5074f4114610601575b600080fd5b3480156100aa57600080fd5b506100b3610652565b005b3480156100c157600080fd5b506100ca610706565b6040518082815260200191505060405180910390f35b3480156100ec57600080fd5b506100f561070c565b005b34801561010357600080fd5b5061010c6107a1565b604051808215151515815260200191505060405180910390f35b34801561013257600080fd5b5061028d6004803603606081101561014957600080fd5b810190808035906020019064010000000081111561016657600080fd5b82018360208201111561017857600080fd5b8035906020019184600183028401116401000000008311171561019a57600080fd5b91908080601f016020809104026020016040519081016040528093929190818152602001838380828437600081840152601f19601f820116905080830192505050505050509192919290803590602001909291908035906020019064010000000081111561020757600080fd5b82018360208201111561021957600080fd5b8035906020019184600183028401116401000000008311171561023b57600080fd5b91908080601f016020809104026020016040519081016040528093929190818152602001838380828437600081840152601f19601f8201169050808301925050505050505091929192905050506107b4565b005b34801561029b57600080fd5b506102c8600480360360208110156102b257600080fd5b81019080803590602001909291905050506109a1565b60405180806020018881526020018781526020018681526020018573ffffffffffffffffffffffffffffffffffffffff1673ffffffffffffffffffffffffffffffffffffffff1681526020018473ffffffffffffffffffffffffffffffffffffffff1673ffffffffffffffffffffffffffffffffffffffff1681526020018060200183810383528a818151815260200191508051906020019080838360005b83811015610382578082015181840152602081019050610367565b50505050905090810190601f1680156103af5780820380516001836020036101000a031916815260200191505b50838103825284818151815260200191508051906020019080838360005b838110156103e85780820151818401526020810190506103cd565b50505050905090810190601f1680156104155780820380516001836020036101000a031916815260200191505b50995050505050505050505060405180910390f35b34801561043657600080fd5b506104636004803603602081101561044d57600080fd5b8101908080359060200190929190505050610c04565b60405180806020018881526020018781526020018060200186600181111561048757fe5b60ff1681526020018573ffffffffffffffffffffffffffffffffffffffff1673ffffffffffffffffffffffffffffffffffffffff1681526020018473ffffffffffffffffffffffffffffffffffffffff1673ffffffffffffffffffffffffffffffffffffffff16815260200183810383528a818151815260200191508051906020019080838360005b8381101561052b578082015181840152602081019050610510565b50505050905090810190601f1680156105585780820380516001836020036101000a031916815260200191505b50838103825287818151815260200191508051906020019080838360005b83811015610591578082015181840152602081019050610576565b50505050905090810190601f1680156105be5780820380516001836020036101000a031916815260200191505b50995050505050505050505060405180910390f35b6105ff600480360360208110156105e957600080fd5b8101908080359060200190929190505050610dc3565b005b34801561060d57600080fd5b506106506004803603602081101561062457600080fd5b81019080803573ffffffffffffffffffffffffffffffffffffffff169060200190929190505050611105565b005b6000809054906101000a900473ffffffffffffffffffffffffffffffffffffffff1673ffffffffffffffffffffffffffffffffffffffff163373ffffffffffffffffffffffffffffffffffffffff161415156106ad57600080fd5b60001515600060149054906101000a900460ff16151514156106e9576001600060146101000a81548160ff021916908315150217905550610704565b60008060146101000a81548160ff0219169083151502179055505b565b60015481565b6000809054906101000a900473ffffffffffffffffffffffffffffffffffffffff1673ffffffffffffffffffffffffffffffffffffffff163373ffffffffffffffffffffffffffffffffffffffff1614151561076757600080fd5b6000809054906101000a900473ffffffffffffffffffffffffffffffffffffffff1673ffffffffffffffffffffffffffffffffffffffff16ff5b600060149054906101000a900460ff1681565b60001515600060149054906101000a900460ff1615151415156107d657600080fd5b6001547fa96ae0fc3224ebd79eebfe54bd130cc9cb94416cddd1f2386115e00b7253246860405160405180910390a260e06040519081016040528084815260200160015481526020018381526020018281526020016000600181111561083857fe5b81526020013373ffffffffffffffffffffffffffffffffffffffff168152602001600073ffffffffffffffffffffffffffffffffffffffff1681525060026000600154815260200190815260200160002060008201518160000190805190602001906108a5929190611179565b50602082015181600101556040820151816002015560608201518160030190805190602001906108d6929190611179565b5060808201518160040160006101000a81548160ff021916908360018111156108fb57fe5b021790555060a08201518160040160016101000a81548173ffffffffffffffffffffffffffffffffffffffff021916908373ffffffffffffffffffffffffffffffffffffffff16021790555060c08201518160050160006101000a81548173ffffffffffffffffffffffffffffffffffffffff021916908373ffffffffffffffffffffffffffffffffffffffff1602179055509050506001805401600181905550505050565b606060008060008060006060600260008981526020019081526020016000206000018054600181600116156101000203166002900480601f016020809104026020016040519081016040528092919081815260200182805460018160011615610100020316600290048015610a575780601f10610a2c57610100808354040283529160200191610a57565b820191906000526020600020905b815481529060010190602001808311610a3a57829003601f168201915b5050505050965060026000898152602001908152602001600020600101549550600260008981526020019081526020016000206002015494506002600089815260200190815260200160002060040160009054906101000a900460ff166001811115610abf57fe5b93506002600089815260200190815260200160002060040160019054906101000a900473ffffffffffffffffffffffffffffffffffffffff1692506002600089815260200190815260200160002060050160009054906101000a900473ffffffffffffffffffffffffffffffffffffffff169150600260008981526020019081526020016000206003018054600181600116156101000203166002900480601f016020809104026020016040519081016040528092919081815260200182805460018160011615610100020316600290048015610bdd5780601f10610bb257610100808354040283529160200191610bdd565b820191906000526020600020905b815481529060010190602001808311610bc057829003601f168201915b50505050509050868686868686869650965096509650965096509650919395979092949650565b6002602052806000526040600020600091509050806000018054600181600116156101000203166002900480601f016020809104026020016040519081016040528092919081815260200182805460018160011615610100020316600290048015610cb05780601f10610c8557610100808354040283529160200191610cb0565b820191906000526020600020905b815481529060010190602001808311610c9357829003601f168201915b505050505090806001015490806002015490806003018054600181600116156101000203166002900480601f016020809104026020016040519081016040528092919081815260200182805460018160011615610100020316600290048015610d5a5780601f10610d2f57610100808354040283529160200191610d5a565b820191906000526020600020905b815481529060010190602001808311610d3d57829003601f168201915b5050505050908060040160009054906101000a900460ff16908060040160019054906101000a900473ffffffffffffffffffffffffffffffffffffffff16908060050160009054906101000a900473ffffffffffffffffffffffffffffffffffffffff16905087565b8060006001811115610dd157fe5b6002600083815260200190815260200160002060040160009054906101000a900460ff166001811115610e0057fe5b141515610e75576040517f08c379a00000000000000000000000000000000000000000000000000000000081526004018080602001828103825260148152602001807f4974656d206973206e6f7420466f722053616c6500000000000000000000000081525060200191505060405180910390fd5b34803410151515610eee576040517f08c379a00000000000000000000000000000000000000000000000000000000081526004018080602001828103825260118152602001807f4e6f7420656e6f7567682045746865722e00000000000000000000000000000081525060200191505060405180910390fd5b8260001515600060149054906101000a900460ff161515141515610f1157600080fd5b336002600086815260200190815260200160002060050160006101000a81548173ffffffffffffffffffffffffffffffffffffffff021916908373ffffffffffffffffffffffffffffffffffffffff1602179055506002600085815260200190815260200160002060040160019054906101000a900473ffffffffffffffffffffffffffffffffffffffff1673ffffffffffffffffffffffffffffffffffffffff166108fc60026000878152602001908152602001600020600201549081150290604051600060405180830381858888f19350505050158015610ff8573d6000803e3d6000fd5b5060016002600086815260200190815260200160002060040160006101000a81548160ff0219169083600181111561102c57fe5b0217905550837f92f64ca637d023f354075a4be751b169c1a8a9ccb6d33cdd0cb352054399572760405160405180910390a2600060026000838152602001908152602001600020600201549050600081340390506002600084815260200190815260200160002060050160009054906101000a900473ffffffffffffffffffffffffffffffffffffffff1673ffffffffffffffffffffffffffffffffffffffff166108fc829081150290604051600060405180830381858888f193505050501580156110fc573d6000803e3d6000fd5b50505050505050565b6000809054906101000a900473ffffffffffffffffffffffffffffffffffffffff1673ffffffffffffffffffffffffffffffffffffffff163373ffffffffffffffffffffffffffffffffffffffff1614151561116057600080fd5b8073ffffffffffffffffffffffffffffffffffffffff16ff5b828054600181600116156101000203166002900490600052602060002090601f016020900481019282601f106111ba57805160ff19168380011785556111e8565b828001600101855582156111e8579182015b828111156111e75782518255916020019190600101906111cc565b5b5090506111f591906111f9565b5090565b61121b91905b808211156112175760008160009055506001016111ff565b5090565b9056fea165627a7a72305820d8ab3019b971ab45db18a07af9402612bb09d9e2a5a9aab199fa64a39c2f73d10029",
  "source": "\npragma solidity ^0.5.0;\nimport \"./SupplyChain.sol\";\n\n/** @title Mortal. Here I have inhereted the modifiers \n***from the SupplyChain contract */\ncontract Mortal is SupplyChain {\n    /**@dev enables the creator of the contract to desctroy it */\n    function destroy() public isOwner {\n        selfdestruct(owner);\n    }\n\n    /**@dev sends the remaining ether stored within the contract \n    ***to a designated target address\n     */\n    function destroyAndSend(address payable recipient) public isOwner {\n        selfdestruct(recipient);\n    }\n}",
  "sourcePath": "/home/raymundo/ethereumProject/final-project-raymundoxmartinez/contracts/Mortal.sol",
  "compiler": {
    "name": "solc",
    "version": "0.5.0+commit.1d4f565a.Emscripten.clang"
  },
  "schemaVersion": "3.0.0",
  "updatedAt": "2019-01-28T09:33:28.111Z",
  "devdoc": {
    "methods": {
      "addItem(string,uint256,string)": {
        "details": "adds an item to the contract storage. param _name Name of the item param _skuCount The identity number of the item param _image an image address of the item"
      },
      "buyItem(uint256)": {
        "details": "allows user to buy an item stored in the contract param sku the identity number of the item"
      },
      "circuitBreaker()": {
        "details": "allows the owner of the contract to ***terminate execution of functions modified by ***a isPaused modifier"
      },
      "destroy()": {
        "details": "enables the creator of the contract to desctroy it "
      },
      "destroyAndSend(address)": {
        "details": "sends the remaining ether stored within the contract ***to a designated target address"
      },
      "fetchItem(uint256)": {
        "details": "returns the item with the specified sku param _sku the items identity number return name Name of the item return sku Id of the item return price Price of the item return state State of the Item (ForSale | Sold) return seller Seller of the Item return buyer Buyer of the item return image Image of the item"
      }
    },
    "title": "Mortal. Here I have inhereted the modifiers ***from the SupplyChain contract "
  },
  "userdoc": {
    "methods": {}
  }
}