{
  "contractName": "SupplyChain",
  "abi": [
    {
      "constant": true,
      "inputs": [],
      "name": "skuCount",
      "outputs": [
        {
          "name": "",
          "type": "uint256"
        }
      ],
      "payable": false,
      "stateMutability": "view",
      "type": "function",
      "signature": "0x22702473"
    },
    {
      "constant": true,
      "inputs": [],
      "name": "contractPaused",
      "outputs": [
        {
          "name": "",
          "type": "bool"
        }
      ],
      "payable": false,
      "stateMutability": "view",
      "type": "function",
      "signature": "0x8a67456a"
    },
    {
      "constant": true,
      "inputs": [
        {
          "name": "",
          "type": "uint256"
        }
      ],
      "name": "items",
      "outputs": [
        {
          "name": "name",
          "type": "string"
        },
        {
          "name": "sku",
          "type": "uint256"
        },
        {
          "name": "price",
          "type": "uint256"
        },
        {
          "name": "image",
          "type": "string"
        },
        {
          "name": "state",
          "type": "uint8"
        },
        {
          "name": "seller",
          "type": "address"
        },
        {
          "name": "buyer",
          "type": "address"
        }
      ],
      "payable": false,
      "stateMutability": "view",
      "type": "function",
      "signature": "0xbfb231d2"
    },
    {
      "inputs": [],
      "payable": false,
      "stateMutability": "nonpayable",
      "type": "constructor",
      "signature": "constructor"
    },
    {
      "anonymous": false,
      "inputs": [
        {
          "indexed": true,
          "name": "sku",
          "type": "uint256"
        }
      ],
      "name": "ForSale",
      "type": "event",
      "signature": "0xa96ae0fc3224ebd79eebfe54bd130cc9cb94416cddd1f2386115e00b72532468"
    },
    {
      "anonymous": false,
      "inputs": [
        {
          "indexed": true,
          "name": "sku",
          "type": "uint256"
        }
      ],
      "name": "Sold",
      "type": "event",
      "signature": "0x92f64ca637d023f354075a4be751b169c1a8a9ccb6d33cdd0cb3520543995727"
    },
    {
      "constant": false,
      "inputs": [
        {
          "name": "_name",
          "type": "string"
        },
        {
          "name": "_price",
          "type": "uint256"
        },
        {
          "name": "_image",
          "type": "string"
        }
      ],
      "name": "addItem",
      "outputs": [],
      "payable": false,
      "stateMutability": "nonpayable",
      "type": "function",
      "signature": "0xa3e54b3e"
    },
    {
      "constant": false,
      "inputs": [
        {
          "name": "sku",
          "type": "uint256"
        }
      ],
      "name": "buyItem",
      "outputs": [],
      "payable": true,
      "stateMutability": "payable",
      "type": "function",
      "signature": "0xe7fb74c7"
    },
    {
      "constant": false,
      "inputs": [],
      "name": "circuitBreaker",
      "outputs": [],
      "payable": false,
      "stateMutability": "nonpayable",
      "type": "function",
      "signature": "0x16efd941"
    },
    {
      "constant": true,
      "inputs": [
        {
          "name": "_sku",
          "type": "uint256"
        }
      ],
      "name": "fetchItem",
      "outputs": [
        {
          "name": "name",
          "type": "string"
        },
        {
          "name": "sku",
          "type": "uint256"
        },
        {
          "name": "price",
          "type": "uint256"
        },
        {
          "name": "state",
          "type": "uint256"
        },
        {
          "name": "seller",
          "type": "address"
        },
        {
          "name": "buyer",
          "type": "address"
        },
        {
          "name": "image",
          "type": "string"
        }
      ],
      "payable": false,
      "stateMutability": "view",
      "type": "function",
      "signature": "0xad4b9cfb"
    }
  ],
  "bytecode": "0x608060405260008060146101000a81548160ff02191690831515021790555034801561002a57600080fd5b50336000806101000a81548173ffffffffffffffffffffffffffffffffffffffff021916908373ffffffffffffffffffffffffffffffffffffffff16021790555060006001819055506110c3806100826000396000f3fe608060405260043610610083576000357c0100000000000000000000000000000000000000000000000000000000900463ffffffff16806316efd94114610088578063227024731461009f5780638a67456a146100ca578063a3e54b3e146100f9578063ad4b9cfb14610262578063bfb231d2146103fd578063e7fb74c7146105a6575b600080fd5b34801561009457600080fd5b5061009d6105d4565b005b3480156100ab57600080fd5b506100b4610688565b6040518082815260200191505060405180910390f35b3480156100d657600080fd5b506100df61068e565b604051808215151515815260200191505060405180910390f35b34801561010557600080fd5b506102606004803603606081101561011c57600080fd5b810190808035906020019064010000000081111561013957600080fd5b82018360208201111561014b57600080fd5b8035906020019184600183028401116401000000008311171561016d57600080fd5b91908080601f016020809104026020016040519081016040528093929190818152602001838380828437600081840152601f19601f82011690508083019250505050505050919291929080359060200190929190803590602001906401000000008111156101da57600080fd5b8201836020820111156101ec57600080fd5b8035906020019184600183028401116401000000008311171561020e57600080fd5b91908080601f016020809104026020016040519081016040528093929190818152602001838380828437600081840152601f19601f8201169050808301925050505050505091929192905050506106a1565b005b34801561026e57600080fd5b5061029b6004803603602081101561028557600080fd5b810190808035906020019092919050505061088e565b60405180806020018881526020018781526020018681526020018573ffffffffffffffffffffffffffffffffffffffff1673ffffffffffffffffffffffffffffffffffffffff1681526020018473ffffffffffffffffffffffffffffffffffffffff1673ffffffffffffffffffffffffffffffffffffffff1681526020018060200183810383528a818151815260200191508051906020019080838360005b8381101561035557808201518184015260208101905061033a565b50505050905090810190601f1680156103825780820380516001836020036101000a031916815260200191505b50838103825284818151815260200191508051906020019080838360005b838110156103bb5780820151818401526020810190506103a0565b50505050905090810190601f1680156103e85780820380516001836020036101000a031916815260200191505b50995050505050505050505060405180910390f35b34801561040957600080fd5b506104366004803603602081101561042057600080fd5b8101908080359060200190929190505050610af1565b60405180806020018881526020018781526020018060200186600181111561045a57fe5b60ff1681526020018573ffffffffffffffffffffffffffffffffffffffff1673ffffffffffffffffffffffffffffffffffffffff1681526020018473ffffffffffffffffffffffffffffffffffffffff1673ffffffffffffffffffffffffffffffffffffffff16815260200183810383528a818151815260200191508051906020019080838360005b838110156104fe5780820151818401526020810190506104e3565b50505050905090810190601f16801561052b5780820380516001836020036101000a031916815260200191505b50838103825287818151815260200191508051906020019080838360005b83811015610564578082015181840152602081019050610549565b50505050905090810190601f1680156105915780820380516001836020036101000a031916815260200191505b50995050505050505050505060405180910390f35b6105d2600480360360208110156105bc57600080fd5b8101908080359060200190929190505050610cb0565b005b6000809054906101000a900473ffffffffffffffffffffffffffffffffffffffff1673ffffffffffffffffffffffffffffffffffffffff163373ffffffffffffffffffffffffffffffffffffffff1614151561062f57600080fd5b60001515600060149054906101000a900460ff161515141561066b576001600060146101000a81548160ff021916908315150217905550610686565b60008060146101000a81548160ff0219169083151502179055505b565b60015481565b600060149054906101000a900460ff1681565b60001515600060149054906101000a900460ff1615151415156106c357600080fd5b6001547fa96ae0fc3224ebd79eebfe54bd130cc9cb94416cddd1f2386115e00b7253246860405160405180910390a260e06040519081016040528084815260200160015481526020018381526020018281526020016000600181111561072557fe5b81526020013373ffffffffffffffffffffffffffffffffffffffff168152602001600073ffffffffffffffffffffffffffffffffffffffff168152506002600060015481526020019081526020016000206000820151816000019080519060200190610792929190610ff2565b50602082015181600101556040820151816002015560608201518160030190805190602001906107c3929190610ff2565b5060808201518160040160006101000a81548160ff021916908360018111156107e857fe5b021790555060a08201518160040160016101000a81548173ffffffffffffffffffffffffffffffffffffffff021916908373ffffffffffffffffffffffffffffffffffffffff16021790555060c08201518160050160006101000a81548173ffffffffffffffffffffffffffffffffffffffff021916908373ffffffffffffffffffffffffffffffffffffffff1602179055509050506001805401600181905550505050565b606060008060008060006060600260008981526020019081526020016000206000018054600181600116156101000203166002900480601f0160208091040260200160405190810160405280929190818152602001828054600181600116156101000203166002900480156109445780601f1061091957610100808354040283529160200191610944565b820191906000526020600020905b81548152906001019060200180831161092757829003601f168201915b5050505050965060026000898152602001908152602001600020600101549550600260008981526020019081526020016000206002015494506002600089815260200190815260200160002060040160009054906101000a900460ff1660018111156109ac57fe5b93506002600089815260200190815260200160002060040160019054906101000a900473ffffffffffffffffffffffffffffffffffffffff1692506002600089815260200190815260200160002060050160009054906101000a900473ffffffffffffffffffffffffffffffffffffffff169150600260008981526020019081526020016000206003018054600181600116156101000203166002900480601f016020809104026020016040519081016040528092919081815260200182805460018160011615610100020316600290048015610aca5780601f10610a9f57610100808354040283529160200191610aca565b820191906000526020600020905b815481529060010190602001808311610aad57829003601f168201915b50505050509050868686868686869650965096509650965096509650919395979092949650565b6002602052806000526040600020600091509050806000018054600181600116156101000203166002900480601f016020809104026020016040519081016040528092919081815260200182805460018160011615610100020316600290048015610b9d5780601f10610b7257610100808354040283529160200191610b9d565b820191906000526020600020905b815481529060010190602001808311610b8057829003601f168201915b505050505090806001015490806002015490806003018054600181600116156101000203166002900480601f016020809104026020016040519081016040528092919081815260200182805460018160011615610100020316600290048015610c475780601f10610c1c57610100808354040283529160200191610c47565b820191906000526020600020905b815481529060010190602001808311610c2a57829003601f168201915b5050505050908060040160009054906101000a900460ff16908060040160019054906101000a900473ffffffffffffffffffffffffffffffffffffffff16908060050160009054906101000a900473ffffffffffffffffffffffffffffffffffffffff16905087565b8060006001811115610cbe57fe5b6002600083815260200190815260200160002060040160009054906101000a900460ff166001811115610ced57fe5b141515610d62576040517f08c379a00000000000000000000000000000000000000000000000000000000081526004018080602001828103825260148152602001807f4974656d206973206e6f7420466f722053616c6500000000000000000000000081525060200191505060405180910390fd5b34803410151515610ddb576040517f08c379a00000000000000000000000000000000000000000000000000000000081526004018080602001828103825260118152602001807f4e6f7420656e6f7567682045746865722e00000000000000000000000000000081525060200191505060405180910390fd5b8260001515600060149054906101000a900460ff161515141515610dfe57600080fd5b336002600086815260200190815260200160002060050160006101000a81548173ffffffffffffffffffffffffffffffffffffffff021916908373ffffffffffffffffffffffffffffffffffffffff1602179055506002600085815260200190815260200160002060040160019054906101000a900473ffffffffffffffffffffffffffffffffffffffff1673ffffffffffffffffffffffffffffffffffffffff166108fc60026000878152602001908152602001600020600201549081150290604051600060405180830381858888f19350505050158015610ee5573d6000803e3d6000fd5b5060016002600086815260200190815260200160002060040160006101000a81548160ff02191690836001811115610f1957fe5b0217905550837f92f64ca637d023f354075a4be751b169c1a8a9ccb6d33cdd0cb352054399572760405160405180910390a2600060026000838152602001908152602001600020600201549050600081340390506002600084815260200190815260200160002060050160009054906101000a900473ffffffffffffffffffffffffffffffffffffffff1673ffffffffffffffffffffffffffffffffffffffff166108fc829081150290604051600060405180830381858888f19350505050158015610fe9573d6000803e3d6000fd5b50505050505050565b828054600181600116156101000203166002900490600052602060002090601f016020900481019282601f1061103357805160ff1916838001178555611061565b82800160010185558215611061579182015b82811115611060578251825591602001919060010190611045565b5b50905061106e9190611072565b5090565b61109491905b80821115611090576000816000905550600101611078565b5090565b9056fea165627a7a7230582087834c6eabdf9825f75125f718d14f4e221152a8f3b1ae09a4c66a7b3a9532580029",
  "source": "\n\npragma solidity ^0.5.0;\n\n/** @title Supply Chain. */\ncontract SupplyChain {\n\n  address payable owner;\n  bool public contractPaused = false;\n  uint public skuCount;\n  mapping (uint => Item ) public items;\n\n  enum State {\n    ForSale,\n    Sold\n  }\n\n  struct Item {\n    string name;\n    uint sku;\n    uint price;\n    string image;\n    State state;\n    address payable seller;\n    address payable buyer;\n  }\n\n\n  event ForSale(uint indexed sku);\n  event Sold(uint indexed sku);\n\n  /**@dev modifier used to only allow owner \n  ***of the contract to call modfied function */\n  modifier isOwner () { require(msg.sender == owner); _;}\n\n  /**@dev verifies that the buyer has payed enough Ether \n  ***to complete the transaction  */\n  modifier paidEnough(uint _price) { require(msg.value >= _price, \"Not enough Ether.\"); _;}\n  \n  /**@dev checks whether there is a remaining\n  ***balance to refund */\n  modifier checkValue(uint _sku) {\n    _;\n    uint _price = items[_sku].price;\n    uint amountToRefund = msg.value - _price;\n    items[_sku].buyer.transfer(amountToRefund);\n  }\n\n  /**@dev checks to see if the item requested has \n  ***already been sold.*/\n  modifier forSale(uint _sku){\n    require(items[_sku].state == State.ForSale, \"Item is not For Sale\");\n    _;\n  }\n\n  /**@dev a circuit breaker to that prevents all \n  ***app functionality if something bad occurs\n  ***if the contract is paused, modified function stops*/\n  modifier checkIfPaused() {\n    require(contractPaused == false);\n    _;\n  }\n\n  /**@dev initializes the contract\n  ***setting the owner of the contract to be msg.sender\n  ***and initializing the id count of the items at 0\n  */\n  constructor() public {\n       owner = msg.sender;\n       skuCount = 0;\n  }\n\n  /**@dev adds an item to the contract storage.\n    *@param _name Name of the item\n    *@param _skuCount The identity number of the item\n    *@param _image an image address of the item\n   */\n  function addItem(string memory _name, uint _price, string memory _image) public checkIfPaused {\n    emit ForSale(skuCount);\n    items[skuCount] = Item({name: _name, sku:skuCount, price: _price, image: _image, state: State.ForSale, seller: msg.sender, buyer: address(0)});\n    skuCount = skuCount + 1;\n  }\n\n/**@dev allows user to buy an item stored in the contract\n  *@param sku the identity number of the item\n */\n  function buyItem(uint sku)\n    public\n    payable\n    forSale(sku)\n    paidEnough(msg.value)\n    checkValue(sku)\n    checkIfPaused\n  {\n    items[sku].buyer = msg.sender;\n    items[sku].seller.transfer(items[sku].price);\n    items[sku].state = State.Sold;\n    emit Sold(sku);\n  }\n\n  /**@dev allows the owner of the contract to \n  ***terminate execution of functions modified by \n  ***a isPaused modifier\n   */\n  function circuitBreaker() public isOwner {\n    if(contractPaused == false) { contractPaused = true; }\n    else { contractPaused = false; }\n  }\n  \n  /**@dev returns the item with the specified sku\n    *@param _sku the items identity number\n    *@return name Name of the item\n    *@return sku Id of the item\n    *@return price Price of the item\n    *@return state State of the Item (ForSale | Sold)\n    *@return seller Seller of the Item\n    *@return buyer Buyer of the item\n    *@return image Image of the item\n   */\n  function fetchItem(uint _sku) public view returns (string memory name, uint sku, uint price, uint state, address seller, address buyer, string memory image) {\n    name = items[_sku].name;\n    sku = items[_sku].sku;\n    price = items[_sku].price;\n    state = uint(items[_sku].state);\n    seller = items[_sku].seller;\n    buyer = items[_sku].buyer;\n    image = items[_sku].image;\n    return (name, sku, price, state, seller, buyer, image);\n  }\n\n}",
  "sourcePath": "/home/raymundo/ethereumProject/final-project-raymundoxmartinez/contracts/SupplyChain.sol",
  "compiler": {
    "name": "solc",
    "version": "0.5.0+commit.1d4f565a.Emscripten.clang"
  },
  "schemaVersion": "3.0.0",
  "updatedAt": "2019-01-28T10:48:12.700Z",
  "devdoc": {
    "methods": {
      "addItem(string,uint256,string)": {
        "details": "adds an item to the contract storage. param _name Name of the item param _skuCount The identity number of the item param _image an image address of the item"
      },
      "buyItem(uint256)": {
        "details": "allows user to buy an item stored in the contract param sku the identity number of the item"
      },
      "circuitBreaker()": {
        "details": "allows the owner of the contract to ***terminate execution of functions modified by ***a isPaused modifier"
      },
      "constructor": {
        "details": "initializes the contract***setting the owner of the contract to be msg.sender***and initializing the id count of the items at 0"
      },
      "fetchItem(uint256)": {
        "details": "returns the item with the specified sku param _sku the items identity number return name Name of the item return sku Id of the item return price Price of the item return state State of the Item (ForSale | Sold) return seller Seller of the Item return buyer Buyer of the item return image Image of the item"
      }
    },
    "title": "Supply Chain. "
  },
  "userdoc": {
    "methods": {}
  }
}