{
  "contractName": "SupplyChain",
  "abi": [
    {
      "constant": true,
      "inputs": [],
      "name": "skuCount",
      "outputs": [
        {
          "name": "",
          "type": "uint256"
        }
      ],
      "payable": false,
      "stateMutability": "view",
      "type": "function",
      "signature": "0x22702473"
    },
    {
      "constant": true,
      "inputs": [],
      "name": "contractPaused",
      "outputs": [
        {
          "name": "",
          "type": "bool"
        }
      ],
      "payable": false,
      "stateMutability": "view",
      "type": "function",
      "signature": "0x8a67456a"
    },
    {
      "constant": true,
      "inputs": [
        {
          "name": "",
          "type": "uint256"
        }
      ],
      "name": "items",
      "outputs": [
        {
          "name": "name",
          "type": "string"
        },
        {
          "name": "sku",
          "type": "uint256"
        },
        {
          "name": "price",
          "type": "uint256"
        },
        {
          "name": "image",
          "type": "string"
        },
        {
          "name": "state",
          "type": "uint8"
        },
        {
          "name": "seller",
          "type": "address"
        },
        {
          "name": "buyer",
          "type": "address"
        }
      ],
      "payable": false,
      "stateMutability": "view",
      "type": "function",
      "signature": "0xbfb231d2"
    },
    {
      "inputs": [],
      "payable": false,
      "stateMutability": "nonpayable",
      "type": "constructor",
      "signature": "constructor"
    },
    {
      "anonymous": false,
      "inputs": [
        {
          "indexed": true,
          "name": "sku",
          "type": "uint256"
        }
      ],
      "name": "ForSale",
      "type": "event",
      "signature": "0xa96ae0fc3224ebd79eebfe54bd130cc9cb94416cddd1f2386115e00b72532468"
    },
    {
      "anonymous": false,
      "inputs": [
        {
          "indexed": true,
          "name": "sku",
          "type": "uint256"
        }
      ],
      "name": "Sold",
      "type": "event",
      "signature": "0x92f64ca637d023f354075a4be751b169c1a8a9ccb6d33cdd0cb3520543995727"
    },
    {
      "anonymous": false,
      "inputs": [
        {
          "indexed": true,
          "name": "sku",
          "type": "uint256"
        }
      ],
      "name": "Shipped",
      "type": "event",
      "signature": "0xf00b9a5725b80c54016f42114f6ed7792d22eecb116011c4afac29c57bef6c95"
    },
    {
      "anonymous": false,
      "inputs": [
        {
          "indexed": true,
          "name": "sku",
          "type": "uint256"
        }
      ],
      "name": "Received",
      "type": "event",
      "signature": "0xa8142743f8f70a4c26f3691cf4ed59718381fb2f18070ec52be1f1022d855557"
    },
    {
      "constant": false,
      "inputs": [
        {
          "name": "_name",
          "type": "string"
        },
        {
          "name": "_price",
          "type": "uint256"
        },
        {
          "name": "_image",
          "type": "string"
        }
      ],
      "name": "addItem",
      "outputs": [],
      "payable": false,
      "stateMutability": "nonpayable",
      "type": "function",
      "signature": "0xa3e54b3e"
    },
    {
      "constant": false,
      "inputs": [
        {
          "name": "sku",
          "type": "uint256"
        }
      ],
      "name": "buyItem",
      "outputs": [],
      "payable": true,
      "stateMutability": "payable",
      "type": "function",
      "signature": "0xe7fb74c7"
    },
    {
      "constant": false,
      "inputs": [],
      "name": "circuitBreaker",
      "outputs": [],
      "payable": false,
      "stateMutability": "nonpayable",
      "type": "function",
      "signature": "0x16efd941"
    },
    {
      "constant": false,
      "inputs": [
        {
          "name": "sku",
          "type": "uint256"
        }
      ],
      "name": "shipItem",
      "outputs": [],
      "payable": false,
      "stateMutability": "nonpayable",
      "type": "function",
      "signature": "0xf61c899a"
    },
    {
      "constant": false,
      "inputs": [
        {
          "name": "sku",
          "type": "uint256"
        }
      ],
      "name": "receiveItem",
      "outputs": [],
      "payable": false,
      "stateMutability": "nonpayable",
      "type": "function",
      "signature": "0xa26be999"
    },
    {
      "constant": true,
      "inputs": [
        {
          "name": "_sku",
          "type": "uint256"
        }
      ],
      "name": "fetchItem",
      "outputs": [
        {
          "name": "name",
          "type": "string"
        },
        {
          "name": "sku",
          "type": "uint256"
        },
        {
          "name": "price",
          "type": "uint256"
        },
        {
          "name": "state",
          "type": "uint256"
        },
        {
          "name": "seller",
          "type": "address"
        },
        {
          "name": "buyer",
          "type": "address"
        },
        {
          "name": "image",
          "type": "string"
        }
      ],
      "payable": false,
      "stateMutability": "view",
      "type": "function",
      "signature": "0xad4b9cfb"
    }
  ],
  "bytecode": "0x608060405260008060146101000a81548160ff02191690831515021790555034801561002a57600080fd5b50336000806101000a81548173ffffffffffffffffffffffffffffffffffffffff021916908373ffffffffffffffffffffffffffffffffffffffff16021790555060006001819055506114ce806100826000396000f3fe608060405260043610610099576000357c0100000000000000000000000000000000000000000000000000000000900463ffffffff16806316efd9411461009e57806322702473146100b55780638a67456a146100e0578063a26be9991461010f578063a3e54b3e1461014a578063ad4b9cfb146102b3578063bfb231d21461044e578063e7fb74c7146105f7578063f61c899a14610625575b600080fd5b3480156100aa57600080fd5b506100b3610660565b005b3480156100c157600080fd5b506100ca610736565b6040518082815260200191505060405180910390f35b3480156100ec57600080fd5b506100f561073c565b604051808215151515815260200191505060405180910390f35b34801561011b57600080fd5b506101486004803603602081101561013257600080fd5b810190808035906020019092919050505061074f565b005b34801561015657600080fd5b506102b16004803603606081101561016d57600080fd5b810190808035906020019064010000000081111561018a57600080fd5b82018360208201111561019c57600080fd5b803590602001918460018302840111640100000000831117156101be57600080fd5b91908080601f016020809104026020016040519081016040528093929190818152602001838380828437600081840152601f19601f820116905080830192505050505050509192919290803590602001909291908035906020019064010000000081111561022b57600080fd5b82018360208201111561023d57600080fd5b8035906020019184600183028401116401000000008311171561025f57600080fd5b91908080601f016020809104026020016040519081016040528093929190818152602001838380828437600081840152601f19601f8201169050808301925050505050505091929192905050506108fe565b005b3480156102bf57600080fd5b506102ec600480360360208110156102d657600080fd5b8101908080359060200190929190505050610aeb565b60405180806020018881526020018781526020018681526020018573ffffffffffffffffffffffffffffffffffffffff1673ffffffffffffffffffffffffffffffffffffffff1681526020018473ffffffffffffffffffffffffffffffffffffffff1673ffffffffffffffffffffffffffffffffffffffff1681526020018060200183810383528a818151815260200191508051906020019080838360005b838110156103a657808201518184015260208101905061038b565b50505050905090810190601f1680156103d35780820380516001836020036101000a031916815260200191505b50838103825284818151815260200191508051906020019080838360005b8381101561040c5780820151818401526020810190506103f1565b50505050905090810190601f1680156104395780820380516001836020036101000a031916815260200191505b50995050505050505050505060405180910390f35b34801561045a57600080fd5b506104876004803603602081101561047157600080fd5b8101908080359060200190929190505050610d4e565b6040518080602001888152602001878152602001806020018660038111156104ab57fe5b60ff1681526020018573ffffffffffffffffffffffffffffffffffffffff1673ffffffffffffffffffffffffffffffffffffffff1681526020018473ffffffffffffffffffffffffffffffffffffffff1673ffffffffffffffffffffffffffffffffffffffff16815260200183810383528a818151815260200191508051906020019080838360005b8381101561054f578082015181840152602081019050610534565b50505050905090810190601f16801561057c5780820380516001836020036101000a031916815260200191505b50838103825287818151815260200191508051906020019080838360005b838110156105b557808201518184015260208101905061059a565b50505050905090810190601f1680156105e25780820380516001836020036101000a031916815260200191505b50995050505050505050505060405180910390f35b6106236004803603602081101561060d57600080fd5b8101908080359060200190929190505050610f0d565b005b34801561063157600080fd5b5061065e6004803603602081101561064857600080fd5b810190808035906020019092919050505061124f565b005b6000809054906101000a900473ffffffffffffffffffffffffffffffffffffffff1673ffffffffffffffffffffffffffffffffffffffff163373ffffffffffffffffffffffffffffffffffffffff161415156106bb57600080fd5b60001515600060149054906101000a900460ff1615151415156106dd57600080fd5b60001515600060149054906101000a900460ff1615151415610719576001600060146101000a81548160ff021916908315150217905550610734565b60008060146101000a81548160ff0219169083151502179055505b565b60015481565b600060149054906101000a900460ff1681565b806002600381111561075d57fe5b6002600083815260200190815260200160002060040160009054906101000a900460ff16600381111561078c57fe5b141515610801576040517f08c379a00000000000000000000000000000000000000000000000000000000081526004018080602001828103825260168152602001807f4974656d20686173206265656e20536869707065642e0000000000000000000081525060200191505060405180910390fd5b6002600083815260200190815260200160002060050160009054906101000a900473ffffffffffffffffffffffffffffffffffffffff168073ffffffffffffffffffffffffffffffffffffffff163373ffffffffffffffffffffffffffffffffffffffff1614151561087257600080fd5b60001515600060149054906101000a900460ff16151514151561089457600080fd5b60036002600085815260200190815260200160002060040160006101000a81548160ff021916908360038111156108c757fe5b0217905550827fa8142743f8f70a4c26f3691cf4ed59718381fb2f18070ec52be1f1022d85555760405160405180910390a2505050565b60001515600060149054906101000a900460ff16151514151561092057600080fd5b6001547fa96ae0fc3224ebd79eebfe54bd130cc9cb94416cddd1f2386115e00b7253246860405160405180910390a260e06040519081016040528084815260200160015481526020018381526020018281526020016000600381111561098257fe5b81526020013373ffffffffffffffffffffffffffffffffffffffff168152602001600073ffffffffffffffffffffffffffffffffffffffff1681525060026000600154815260200190815260200160002060008201518160000190805190602001906109ef9291906113fd565b5060208201518160010155604082015181600201556060820151816003019080519060200190610a209291906113fd565b5060808201518160040160006101000a81548160ff02191690836003811115610a4557fe5b021790555060a08201518160040160016101000a81548173ffffffffffffffffffffffffffffffffffffffff021916908373ffffffffffffffffffffffffffffffffffffffff16021790555060c08201518160050160006101000a81548173ffffffffffffffffffffffffffffffffffffffff021916908373ffffffffffffffffffffffffffffffffffffffff1602179055509050506001805401600181905550505050565b606060008060008060006060600260008981526020019081526020016000206000018054600181600116156101000203166002900480601f016020809104026020016040519081016040528092919081815260200182805460018160011615610100020316600290048015610ba15780601f10610b7657610100808354040283529160200191610ba1565b820191906000526020600020905b815481529060010190602001808311610b8457829003601f168201915b5050505050965060026000898152602001908152602001600020600101549550600260008981526020019081526020016000206002015494506002600089815260200190815260200160002060040160009054906101000a900460ff166003811115610c0957fe5b93506002600089815260200190815260200160002060040160019054906101000a900473ffffffffffffffffffffffffffffffffffffffff1692506002600089815260200190815260200160002060050160009054906101000a900473ffffffffffffffffffffffffffffffffffffffff169150600260008981526020019081526020016000206003018054600181600116156101000203166002900480601f016020809104026020016040519081016040528092919081815260200182805460018160011615610100020316600290048015610d275780601f10610cfc57610100808354040283529160200191610d27565b820191906000526020600020905b815481529060010190602001808311610d0a57829003601f168201915b50505050509050868686868686869650965096509650965096509650919395979092949650565b6002602052806000526040600020600091509050806000018054600181600116156101000203166002900480601f016020809104026020016040519081016040528092919081815260200182805460018160011615610100020316600290048015610dfa5780601f10610dcf57610100808354040283529160200191610dfa565b820191906000526020600020905b815481529060010190602001808311610ddd57829003601f168201915b505050505090806001015490806002015490806003018054600181600116156101000203166002900480601f016020809104026020016040519081016040528092919081815260200182805460018160011615610100020316600290048015610ea45780601f10610e7957610100808354040283529160200191610ea4565b820191906000526020600020905b815481529060010190602001808311610e8757829003601f168201915b5050505050908060040160009054906101000a900460ff16908060040160019054906101000a900473ffffffffffffffffffffffffffffffffffffffff16908060050160009054906101000a900473ffffffffffffffffffffffffffffffffffffffff16905087565b8060006003811115610f1b57fe5b6002600083815260200190815260200160002060040160009054906101000a900460ff166003811115610f4a57fe5b141515610fbf576040517f08c379a00000000000000000000000000000000000000000000000000000000081526004018080602001828103825260148152602001807f4974656d206973206e6f7420466f722053616c6500000000000000000000000081525060200191505060405180910390fd5b34803410151515611038576040517f08c379a00000000000000000000000000000000000000000000000000000000081526004018080602001828103825260118152602001807f4e6f7420656e6f7567682045746865722e00000000000000000000000000000081525060200191505060405180910390fd5b8260001515600060149054906101000a900460ff16151514151561105b57600080fd5b336002600086815260200190815260200160002060050160006101000a81548173ffffffffffffffffffffffffffffffffffffffff021916908373ffffffffffffffffffffffffffffffffffffffff1602179055506002600085815260200190815260200160002060040160019054906101000a900473ffffffffffffffffffffffffffffffffffffffff1673ffffffffffffffffffffffffffffffffffffffff166108fc60026000878152602001908152602001600020600201549081150290604051600060405180830381858888f19350505050158015611142573d6000803e3d6000fd5b5060016002600086815260200190815260200160002060040160006101000a81548160ff0219169083600381111561117657fe5b0217905550837f92f64ca637d023f354075a4be751b169c1a8a9ccb6d33cdd0cb352054399572760405160405180910390a2600060026000838152602001908152602001600020600201549050600081340390506002600084815260200190815260200160002060050160009054906101000a900473ffffffffffffffffffffffffffffffffffffffff1673ffffffffffffffffffffffffffffffffffffffff166108fc829081150290604051600060405180830381858888f19350505050158015611246573d6000803e3d6000fd5b50505050505050565b806001600381111561125d57fe5b6002600083815260200190815260200160002060040160009054906101000a900460ff16600381111561128c57fe5b141515611301576040517f08c379a00000000000000000000000000000000000000000000000000000000081526004018080602001828103825260128152602001807f4974656d20686173206265656e20736f6c64000000000000000000000000000081525060200191505060405180910390fd5b6002600083815260200190815260200160002060040160019054906101000a900473ffffffffffffffffffffffffffffffffffffffff168073ffffffffffffffffffffffffffffffffffffffff163373ffffffffffffffffffffffffffffffffffffffff1614151561137257600080fd5b60001515600060149054906101000a900460ff16151514151561139457600080fd5b600280600085815260200190815260200160002060040160006101000a81548160ff021916908360038111156113c657fe5b0217905550827ff00b9a5725b80c54016f42114f6ed7792d22eecb116011c4afac29c57bef6c9560405160405180910390a2505050565b828054600181600116156101000203166002900490600052602060002090601f016020900481019282601f1061143e57805160ff191683800117855561146c565b8280016001018555821561146c579182015b8281111561146b578251825591602001919060010190611450565b5b509050611479919061147d565b5090565b61149f91905b8082111561149b576000816000905550600101611483565b5090565b9056fea165627a7a72305820f22b4cf1071f08fed6c3df1fa87afa1aacb99fd4e8f7cb07e687298a256337500029",
  "source": "/*\n    This exercise has been updated to use Solidity version 0.5\n    Breaking changes from 0.4 to 0.5 can be found here:\n    https://solidity.readthedocs.io/en/v0.5.0/050-breaking-changes.html\n*/\n\npragma solidity ^0.5.0;\n\ncontract SupplyChain {\n\n    address payable owner;\n    bool public contractPaused = false;\n    uint public skuCount;\n    mapping (uint => Item ) public items;\n\n  enum State {\n    ForSale,\n    Sold,\n    Shipped,\n    Received\n  }\n\n    struct Item {\n      string name;\n      uint sku;\n      uint price;\n      string image;\n      State state;\n      address payable seller;\n      address payable buyer;\n    }\n\n    event ForSale(uint indexed sku);\n    event Sold(uint indexed sku);\n    event Shipped(uint indexed sku);\n    event Received(uint indexed sku);\n\n\n  modifier isOwner () { require(msg.sender == owner); _;}\n\n  modifier verifyCaller (address _address) { require (msg.sender == _address); _;}\n\n  modifier paidEnough(uint _price) { require(msg.value >= _price, \"Not enough Ether.\"); _;}\n  modifier checkValue(uint _sku) {\n    //refund them after pay for item (why it is before, _ checks for logic before func)\n    _;\n    uint _price = items[_sku].price;\n    uint amountToRefund = msg.value - _price;\n    items[_sku].buyer.transfer(amountToRefund);\n  }\n\n  modifier forSale(uint _sku){\n    require(items[_sku].state == State.ForSale, \"Item is not For Sale\");\n    _;\n  }\n  modifier sold(uint _sku){\n    require(items[_sku].state == State.Sold, \"Item has been sold\");\n    _;\n  }\n  modifier shipped(uint _sku){\n    require(items[_sku].state == State.Shipped, \"Item has been Shipped.\");\n    _;\n  }\n  modifier received(uint _sku){\n    require(items[_sku].state == State.Received, \"Item has been received.\");\n    _;\n  }\n\n//Here is a circuit breaker to that prevents all \n//app functionality if something bad occurs\n//if the contract is paused, stop the modified function\n  modifier checkIfPaused() {\n    require(contractPaused == false);\n    _;\n  }\n\n  constructor() public {\n    /* Here, set the owner as the person who instantiated the contract\n       and set your skuCount to 0. */\n       owner = msg.sender;\n       skuCount = 0;\n  }\n\n  function addItem(string memory _name, uint _price, string memory _image) public checkIfPaused {\n    emit ForSale(skuCount);\n    items[skuCount] = Item({name: _name, sku:skuCount, price: _price, image: _image, state: State.ForSale, seller: msg.sender, buyer: address(0)});\n    skuCount = skuCount + 1;\n  }\n\n  function buyItem(uint sku)\n    public\n    payable\n    forSale(sku)\n    paidEnough(msg.value)\n    checkValue(sku)\n    checkIfPaused\n  {\n    items[sku].buyer = msg.sender;\n    items[sku].seller.transfer(items[sku].price);\n    items[sku].state = State.Sold;\n    emit Sold(sku);\n  }\n\n//only an owner can call \n  function circuitBreaker() public isOwner  checkIfPaused{\n    if(contractPaused == false) { contractPaused = true; }\n    else { contractPaused = false; }\n  }\n  function shipItem(uint sku)\n    public\n    sold(sku)\n    verifyCaller(items[sku].seller)\n    checkIfPaused\n  {\n    items[sku].state = State.Shipped;\n    emit Shipped(sku);\n  }\n\n  function receiveItem(uint sku)\n    public\n    shipped(sku)\n    verifyCaller(items[sku].buyer)\n    checkIfPaused\n  {\n    items[sku].state = State.Received;\n    emit Received(sku);\n  }\n\n  function fetchItem(uint _sku) public view returns (string memory name, uint sku, uint price, uint state, address seller, address buyer, string memory image) {\n    name = items[_sku].name;\n    sku = items[_sku].sku;\n    price = items[_sku].price;\n    state = uint(items[_sku].state);\n    seller = items[_sku].seller;\n    buyer = items[_sku].buyer;\n    image = items[_sku].image;\n    return (name, sku, price, state, seller, buyer, image);\n  }\n\n}",
  "sourcePath": "/home/raymundo/ethereumProject/final-project-raymundoxmartinez/contracts/SupplyChain.sol",
  "compiler": {
    "name": "solc",
    "version": "0.5.0+commit.1d4f565a.Emscripten.clang"
  },
  "schemaVersion": "3.0.0",
  "updatedAt": "2019-01-28T03:02:38.678Z",
  "devdoc": {
    "methods": {}
  },
  "userdoc": {
    "methods": {}
  }
}